:020000040000FA
:100000000C9462000C948A000C948A000C948A0070
:100010000C948A000C948A000C948A000C948A0038
:100020000C948A000C948A000C948A000C948A0028
:100030000C948A000C948A000C948A000C948A0018
:100040000C94EF020C948A000C94BD020C9497025D
:100050000C948A000C948A000C948A000C948A00F8
:100060000C948A000C948A000000000024002700F1
:100070002A0000000000250028002B0000000000DE
:1000800023002600290004040404040404040202DA
:100090000202020203030303030301020408102007
:1000A0004080010204081020010204081020000012
:1000B0000008000201000003040700000000000027
:1000C0000000390311241FBECFEFD8E0DEBFCDBF43
:1000D00011E0A0E0B1E0E0EEFBE002C005900D927F
:1000E000A832B107D9F722E0A8E2B1E001C01D9221
:1000F000A230B207E1F710E0C2E6D0E004C02197D9
:10010000FE010E94E805C136D107C9F70E94D2035B
:100110000C94EE050C940000AF92BF92CF92DF9248
:10012000EF92FF920F931F93CF93DF936C017B01AC
:100130008B01040F151FEB015E01AE18BF08C0173D
:10014000D10759F06991D601ED91FC910190F081B0
:10015000E02DC6010995892B79F7C501DF91CF9173
:100160001F910F91FF90EF90DF90CF90BF90AF90D5
:100170000895FC01538D448D252F30E0842F90E0AD
:10018000821B930B541710F0CF9608950197089592
:10019000FC01918D828D981761F0A28DAE0FBF2F5B
:1001A000B11D5D968C91928D9F5F9F73928F90E0B1
:1001B00008958FEF9FEF0895FC01918D828D981720
:1001C00031F0828DE80FF11D858D90E008958FEF5D
:1001D0009FEF0895FC01918D228D892F90E0805C26
:1001E0009F4F821B91098F739927089581E391E0B6
:1001F0000E94EA0021E0892B09F420E0822F089573
:1002000080E090E0892B29F00E94F60081110C9487
:1002100000000895FC01A48DA80FB92FB11DA35AA9
:10022000BF4F2C91848D90E001968F739927848F16
:10023000A689B7892C93A089B1898C918370806439
:100240008C93938D848D981306C00288F389E02DDA
:1002500080818F7D80830895EF92FF920F931F938B
:10026000CF93DF93EC0181E0888F9B8D8C8D981369
:100270001AC0E889F989808185FF15C09FB7F89475
:10028000EE89FF896083E889F989808183708064C1
:1002900080839FBF81E090E0DF91CF911F910F910C
:1002A000FF90EF900895F62E0B8D10E00F5F1F4F1B
:1002B0000F731127E02E8C8D8E110CC00FB607FC2A
:1002C000FACFE889F989808185FFF5CFCE010E94B8
:1002D0000A01F1CFEB8DEC0FFD2FF11DE35AFF4F1B
:1002E000F0829FB7F8940B8FEA89FB898081806246
:1002F000CFCFCF93DF93EC01888D8823B9F0AA8903
:10030000BB89E889F9898C9185FD03C0808186FDD0
:100310000DC00FB607FCF7CF8C9185FFF2CF80811F
:1003200085FFEDCFCE010E940A01E9CFDF91CF9189
:100330000895833081F028F4813099F08230A9F05B
:1003400008958730A9F08830C9F08430B1F48091E5
:1003500080008F7D03C0809180008F778093800024
:10036000089584B58F7784BD089584B58F7DFBCFC4
:100370008091B0008F778093B00008958091B00095
:100380008F7DF9CF1F93CF93DF93282F30E0F901B2
:10039000E255FF4F8491F901E656FF4FD491F901E0
:1003A000EA57FF4FC491CC23A9F0162F81110E9468
:1003B0009901EC2FF0E0EE0FFF1FEE58FF4FA591D3
:1003C000B4918FB7F894EC91111108C0D095DE2349
:1003D000DC938FBFDF91CF911F910895DE2BF8CF73
:1003E000CF93DF9390E0FC01E656FF4F24918A57AC
:1003F0009F4FFC0184918823D1F090E0880F991FD2
:10040000FC01E859FF4FA591B491FC01EE58FF4F54
:10041000C591D49161110EC09FB7F8948C91E22FD1
:10042000E0958E238C932881E223E8839FBFDF91A0
:10043000CF9108958FB7F894EC91E22BEC938FBF96
:10044000F6CF3FB7F89480912D0190912E01A091A5
:100450002F01B091300126B5A89B05C02F3F19F0A0
:100460000196A11DB11D3FBFBA2FA92F982F882734
:10047000BC01CD01620F711D811D911D42E0660F0F
:10048000771F881F991F4A95D1F70895FC010190A5
:100490000020E9F73197AF01481B590BBC0181E3FC
:1004A00091E00C948C008F929F92AF92BF920F9329
:1004B0001F93CF93DF93CDB7DEB7A1970FB6F89414
:1004C000DEBF0FBECDBF19A2423008F44AE08E0154
:1004D0000F5D1F4F842E912CB12CA12CA5019401EE
:1004E0000E94B205E62FB901CA01EA30F4F4E05DDA
:1004F000D801EE938D01232B242B252B79F790E047
:1005000080E0109719F0CD010E944602A1960FB627
:10051000F894DEBF0FBECDBFDF91CF911F910F9139
:10052000BF90AF909F908F900895E95CE1CF1F92AC
:100530000F920FB60F9211242F933F934F935F9317
:100540006F937F938F939F93AF93BF93EF93FF939B
:1005500081E391E00E940A01FF91EF91BF91AF9179
:100560009F918F917F916F915F914F913F912F91CB
:100570000F900FBE0F901F9018951F920F920FB6FD
:100580000F9211242F938F939F93EF93FF93E091FA
:100590004101F09142018081E0914701F0914801D1
:1005A00082FD1BC0908180914A018F5F8F732091E3
:1005B0004B01821741F0E0914A01F0E0EF5CFE4F01
:1005C000958F80934A01FF91EF919F918F912F9189
:1005D0000F900FBE0F901F9018958081F4CF1F923F
:1005E0000F920FB60F9211242F933F938F939F93E7
:1005F000AF93BF938091290190912A01A0912B0183
:10060000B0912C013091280123E0230F2D3758F5AC
:100610000196A11DB11D209328018093290190937B
:100620002A01A0932B01B0932C0180912D01909170
:100630002E01A0912F01B09130010196A11DB11D95
:1006400080932D0190932E01A0932F01B093300140
:10065000BF91AF919F918F913F912F910F900FBEBE
:100660000F901F90189526E8230F0296A11DB11D2B
:10067000D2CFE1E3F1E01382128288EE93E0A0E0B2
:10068000B0E084839583A683B78384E091E091836F
:10069000808385EC90E09587848784EC90E0978751
:1006A000868780EC90E0918B808B81EC90E0938B3F
:1006B000828B82EC90E0958B848B86EC90E0978B1C
:1006C000868B118E128E138E148EE1EEF1E085E092
:1006D00090E091838083148224EB30E0368325837D
:1006E00028E730E03087278328EC30E03487238701
:1006F0002DE030E0368725872CE030E0308B2787EF
:100700002BE030E0328B218B2AE030E0348B238BDE
:1007100029E030E0368B258B28E030E0308F278BC6
:1007200027E030E0328F218F26E030E0348F238FB6
:10073000968F858F84E090E090A3878F12A211A2FC
:1007400014A213A216A215A2EEECF1E088E797E03E
:100750009183808387EA96E0938382838DEE95E090
:100760009583848387E995E0978386838BEF94E074
:100770009187808783EB94E09387828780E794E07A
:100780009587848780E394E09787868784EF93E05A
:10079000918B808BE1EEF1E088E0DF011D928A957C
:1007A000E9F70895CF93DF9300D000D000D0CDB704
:1007B000DEB7789484B5826084BD84B5816084BDE1
:1007C00085B5826085BD85B5816085BD80916E00EF
:1007D000816080936E001092810080918100826020
:1007E000809381008091810081608093810080915D
:1007F00080008160809380008091B100846080934C
:10080000B1008091B00081608093B00080917A0047
:10081000846080937A0080917A00826080937A006D
:1008200080917A00816080937A0080917A0080685C
:1008300080937A001092C100E0914101F091420151
:1008400082E08083E0913D01F0913E011082E091D1
:100850003F01F09140018FEC808310924901E091BB
:100860004501F091460186E08083E0914301F091DB
:100870004401808180618083E0914301F0914401D3
:10088000808188608083E0914301F0914401808100
:1008900080688083E0914301F091440180818F7DE5
:1008A000808361E08091EE010E94F00161E080911F
:1008B000F0010E94F00161E08091FA010E94F001D4
:1008C00061E0809100020E94F00161E08091FC01F2
:1008D0000E94F00160E08091FE010E94F0010FE0B3
:1008E00010E031EDC32E31E0D32E40E0E42E40E0A5
:1008F000F42E0E9421024B015C0160E08091EB012B
:100900000E94C201C8010197F1F761E08091EB01FB
:100910000E94C201C8010197F1F761E08091ED01E9
:100920000E94C20160E08091EF010E94C2013090FC
:10093000ED018091F1019091F2011E821D82512CF6
:1009400099279C0122553F4F3A832983AC01465693
:100950005F4F5C834B83FC01EA57FF4F3F0161E02F
:10096000832D0E94C201E981FA818491EB81FC818F
:100970002490F3014490442009F4D8C081110E94CE
:100980009901E42DF0E0EE0FFF1FE458FF4FA59111
:10099000B4918C91822131E020E009F430E0832F82
:1009A000922F0D8002C0880F991F0A94E2F7582AEF
:1009B00060E0832D0E94C2012D813E812F5F3F4F59
:1009C0003E832D832830310509F0C9CF5092E001D4
:1009D000852D90E09093EA018093E9010E94210225
:1009E0009B01AC01281939094A095B0949015A01DF
:1009F00082E191E00E9446024AE0C501B4010E94F2
:100A000053028BE191E00E9446020E9421024B01B9
:100A10005C014091E9015091EA015A834983EEEC6F
:100A2000F1E020E830E089819A81B9010E949E05B9
:100A30006130710509F07DC051E0538B49815A81C5
:100A4000421B530B5A83498335952795319651E0C4
:100A5000E63DF50741F7EEECF1E08489882309F4DF
:100A60006AC0148A3196CE16DF06B9F7E1EEF1E0DE
:100A7000FA83E983E981FA816191FA83E98370E07D
:100A800090E080E04AE00E94530229813A81295E89
:100A9000314081F78BE191E00E9446020E942102E1
:100AA0009B01AC01281939094A095B0949015A011E
:100AB0008EE191E00E9446024AE0C501B4010E9425
:100AC00053028BE191E00E9446020E9421022B0119
:100AD0003C0188EE882E83E0982EA12CB12C0E9438
:100AE00021026419750986099709683E73408105DA
:100AF0009105A8F331E0831A9108A108B10848EEE6
:100B0000440E43E0541E611C711C81149104A10425
:100B1000B10429F7E114F10409F4EBCE0E94F600C8
:100B2000882309F4E6CE0E940000E3CE90E080E046
:100B300038CF138A89CF81E0848B94CF97FB072E1F
:100B400016F4009407D077FD09D00E94D40507FC65
:100B500005D03EF4909581959F4F089570956195CD
:100B60007F4F0895A1E21A2EAA1BBB1BFD010DC0E9
:100B7000AA1FBB1FEE1FFF1FA217B307E407F5074D
:100B800020F0A21BB30BE40BF50B661F771F881F29
:100B9000991F1A9469F760957095809590959B01BF
:100BA000AC01BD01CF010895AA1BBB1B51E107C0D9
:100BB000AA1FBB1FA617B70710F0A61BB70B881FED
:100BC000991F5A95A9F780959095BC01CD0108957C
:100BD000EE0FFF1F0590F491E02D0994F894FFCFDC
:100BE000000000002C018C00B9007901EA00C80067
:100BF000DC004765744461746120000D0A0042798D
:080C00007465466C6970200068
:107E0000112484B714BE81FFF0D085E080938100F7
:107E100082E08093C00088E18093C10086E0809377
:107E2000C20080E18093C4008EE0C9D0259A86E02C
:107E300020E33CEF91E0309385002093840096BBD3
:107E4000B09BFECF1D9AA8958150A9F7CC24DD24C4
:107E500088248394B5E0AB2EA1E19A2EF3E0BF2EE7
:107E6000A2D0813461F49FD0082FAFD0023811F036
:107E7000013811F484E001C083E08DD089C08234E0
:107E800011F484E103C0853419F485E0A6D080C0E4
:107E9000853579F488D0E82EFF2485D0082F10E0AE
:107EA000102F00270E291F29000F111F8ED06801E7
:107EB0006FC0863521F484E090D080E0DECF843638
:107EC00009F040C070D06FD0082F6DD080E0C81688
:107ED00080E7D80618F4F601B7BEE895C0E0D1E017
:107EE00062D089930C17E1F7F0E0CF16F0E7DF06D8
:107EF00018F0F601B7BEE89568D007B600FCFDCFD4
:107F0000A601A0E0B1E02C9130E011968C91119780
:107F100090E0982F8827822B932B1296FA010C0160
:107F200087BEE89511244E5F5F4FF1E0A038BF0790
:107F300051F7F601A7BEE89507B600FCFDCF97BE46
:107F4000E89526C08437B1F42ED02DD0F82E2BD052
:107F50003CD0F601EF2C8F010F5F1F4F84911BD097
:107F6000EA94F801C1F70894C11CD11CFA94CF0C13
:107F7000D11C0EC0853739F428D08EE10CD085E9AC
:107F80000AD08FE07ACF813511F488E018D01DD067
:107F900080E101D065CF982F8091C00085FFFCCF94
:107FA0009093C60008958091C00087FFFCCF809118
:107FB000C00084FD01C0A8958091C6000895E0E648
:107FC000F0E098E1908380830895EDDF803219F02E
:107FD00088E0F5DFFFCF84E1DECF1F93182FE3DFCA
:107FE0001150E9F7F2DF1F91089580E0E8DFEE27F6
:047FF000FF270994CA
:027FFE00040479
:00000001FF
